{
  "transactions": [
    {
      "hash": "0x68ab57e3493d838ccf0e8617eda06ceaa53b892d4c122e755a5c6757d5b0e20f",
      "transactionType": "CREATE",
      "contractName": "SimulateFlowExecutor",
      "contractAddress": "0x32d0ed50b52a442db5ef746ba69179119004922a",
      "function": null,
      "arguments": null,
      "transaction": {
        "from": "0xf1a625d200c881e9bdee81d4118c419f05c2d5a3",
        "gas": "0x941f8",
        "value": "0x0",
        "input": "0x6080604052348015600e575f5ffd5b5061077b8061001c5f395ff3fe608060405234801561000f575f5ffd5b5060043610610029575f3560e01c806330246e701461002d575b5f5ffd5b6100476004803603810190610042919061049a565b610049565b005b5f8490508073ffffffffffffffffffffffffffffffffffffffff1663570810e2856040518263ffffffff1660e01b81526004016100869190610596565b5f604051808303815f87803b15801561009d575f5ffd5b505af11580156100af573d5f5f3e3d5ffd5b505050508073ffffffffffffffffffffffffffffffffffffffff1663fc74d3e285846040518363ffffffff1660e01b81526004016100ee9291906105c5565b5f604051808303815f87803b158015610105575f5ffd5b505af1158015610117573d5f5f3e3d5ffd5b505050508073ffffffffffffffffffffffffffffffffffffffff16635c591ef18486856040518463ffffffff1660e01b8152600401610158939291906105f3565b5f604051808303815f87803b15801561016f575f5ffd5b505af1158015610181573d5f5f3e3d5ffd5b505050508073ffffffffffffffffffffffffffffffffffffffff1663e71aa318846040518263ffffffff1660e01b81526004016101be9190610680565b5f604051808303815f87803b1580156101d5575f5ffd5b505af11580156101e7573d5f5f3e3d5ffd5b505050508073ffffffffffffffffffffffffffffffffffffffff1663f1a6968d84866040518363ffffffff1660e01b81526004016102269291906106fd565b5f604051808303815f87803b15801561023d575f5ffd5b505af115801561024f573d5f5f3e3d5ffd5b505050508073ffffffffffffffffffffffffffffffffffffffff16633b253b23856040518263ffffffff1660e01b815260040161028c9190610596565b5f604051808303815f87803b1580156102a3575f5ffd5b505af11580156102b5573d5f5f3e3d5ffd5b505050505050505050565b5f604051905090565b5f5ffd5b5f5ffd5b5f73ffffffffffffffffffffffffffffffffffffffff82169050919050565b5f6102fa826102d1565b9050919050565b61030a816102f0565b8114610314575f5ffd5b50565b5f8135905061032581610301565b92915050565b5f5ffd5b5f5ffd5b5f601f19601f8301169050919050565b7f4e487b71000000000000000000000000000000000000000000000000000000005f52604160045260245ffd5b61037982610333565b810181811067ffffffffffffffff8211171561039857610397610343565b5b80604052505050565b5f6103aa6102c0565b90506103b68282610370565b919050565b5f67ffffffffffffffff8211156103d5576103d4610343565b5b6103de82610333565b9050602081019050919050565b828183375f83830152505050565b5f61040b610406846103bb565b6103a1565b9050828152602081018484840111156104275761042661032f565b5b6104328482856103eb565b509392505050565b5f82601f83011261044e5761044d61032b565b5b813561045e8482602086016103f9565b91505092915050565b5f819050919050565b61047981610467565b8114610483575f5ffd5b50565b5f8135905061049481610470565b92915050565b5f5f5f5f608085870312156104b2576104b16102c9565b5b5f6104bf87828801610317565b945050602085013567ffffffffffffffff8111156104e0576104df6102cd565b5b6104ec8782880161043a565b935050604085013567ffffffffffffffff81111561050d5761050c6102cd565b5b6105198782880161043a565b925050606061052a87828801610486565b91505092959194509250565b5f81519050919050565b5f82825260208201905092915050565b8281835e5f83830152505050565b5f61056882610536565b6105728185610540565b9350610582818560208601610550565b61058b81610333565b840191505092915050565b5f6020820190508181035f8301526105ae818461055e565b905092915050565b6105bf81610467565b82525050565b5f6040820190508181035f8301526105dd818561055e565b90506105ec60208301846105b6565b9392505050565b5f6060820190508181035f83015261060b818661055e565b9050818103602083015261061f818561055e565b905061062e60408301846105b6565b949350505050565b7f6469643a6578616d706c653a76657269666965720000000000000000000000005f82015250565b5f61066a601483610540565b915061067582610636565b602082019050919050565b5f6040820190508181035f830152610698818461055e565b905081810360208301526106ab8161065e565b905092915050565b7f47726164756174656400000000000000000000000000000000000000000000005f82015250565b5f6106e7600983610540565b91506106f2826106b3565b602082019050919050565b5f6060820190508181035f830152610715818561055e565b90508181036020830152610729818461055e565b9050818103604083015261073c816106db565b9050939250505056fea2646970667358221220f02769584e8a7d6c770910e65e095dfa88a208070dd70fb02a4695b9e0cbc35c64736f6c634300081d0033",
        "nonce": "0x7",
        "chainId": "0xaa36a7"
      },
      "additionalContracts": [],
      "isFixedGasLimit": false
    },
    {
      "hash": "0xd16cdb4cf224480f95007cfba769e675340f87c5e49aaf8a50680f3c0a9cffe5",
      "transactionType": "CALL",
      "contractName": "SimulateFlowExecutor",
      "contractAddress": "0x32d0ed50b52a442db5ef746ba69179119004922a",
      "function": "executeFlow(address,string,string,bytes32)",
      "arguments": [
        "0x703320BbBAfdc9C9C03f4a668b1F8378fac20CE9",
        "did:example:issuer",
        "{subject:did:example:user,degree:ComputerScience,timestamp:1747054368}",
        "0xb8e0c6787c591f927393b648c964a3be0dec54e537c383d40afe303c02ae7bc0"
      ],
      "transaction": {
        "from": "0xf1a625d200c881e9bdee81d4118c419f05c2d5a3",
        "to": "0x32d0ed50b52a442db5ef746ba69179119004922a",
        "gas": "0x1c182",
        "value": "0x0",
        "input": "0x30246e70000000000000000000000000703320bbbafdc9c9c03f4a668b1f8378fac20ce9000000000000000000000000000000000000000000000000000000000000008000000000000000000000000000000000000000000000000000000000000000c0b8e0c6787c591f927393b648c964a3be0dec54e537c383d40afe303c02ae7bc000000000000000000000000000000000000000000000000000000000000000126469643a6578616d706c653a697373756572000000000000000000000000000000000000000000000000000000000000000000000000000000000000000000467b7375626a6563743a6469643a6578616d706c653a757365722c6465677265653a436f6d7075746572536369656e63652c74696d657374616d703a313734373035343336387d0000000000000000000000000000000000000000000000000000",
        "nonce": "0x8",
        "chainId": "0xaa36a7"
      },
      "additionalContracts": [],
      "isFixedGasLimit": false
    }
  ],
  "receipts": [
    {
      "status": "0x1",
      "cumulativeGasUsed": "0x2527f44",
      "logs": [],
      "logsBloom": "0x00000000000000000000000000000000000000000000000000000000000000000000000000000000000000000000000000000000000000000000000000000000000000000000000000000000000000000000000000000000000000000000000000000000000000000000000000000000000000000000000000000000000000000000000000000000000000000000000000000000000000000000000000000000000000000000000000000000000000000000000000000000000000000000000000000000000000000000000000000000000000000000000000000000000000000000000000000000000000000000000000000000000000000000000000000000",
      "type": "0x2",
      "transactionHash": "0x68ab57e3493d838ccf0e8617eda06ceaa53b892d4c122e755a5c6757d5b0e20f",
      "transactionIndex": "0x81",
      "blockHash": "0xa1c85373514fdacf88d8f7a158d61fac832f5adebf7aaf2d572c31b56defc982",
      "blockNumber": "0x7ed14f",
      "gasUsed": "0x71f0e",
      "effectiveGasPrice": "0x15d5f2",
      "from": "0xf1a625d200c881e9bdee81d4118c419f05c2d5a3",
      "to": null,
      "contractAddress": "0x32d0ed50b52a442db5ef746ba69179119004922a"
    },
    {
      "status": "0x1",
      "cumulativeGasUsed": "0x253c4b4",
      "logs": [
        {
          "address": "0x703320bbbafdc9c9c03f4a668b1f8378fac20ce9",
          "topics": [
            "0xb8b2e3bb27e6b5ffbf9236494fa25cd03dbecac445aee5269344832b96381954",
            "0xc73f6216dd76beff45c71ae8dd2058336033bd694e68977ec8c056c92ee644b0",
            "0x00000000000000000000000032d0ed50b52a442db5ef746ba69179119004922a"
          ],
          "data": "0x000000000000000000000000000000000000000000000000000000006821ef2c",
          "blockHash": "0xa1c85373514fdacf88d8f7a158d61fac832f5adebf7aaf2d572c31b56defc982",
          "blockNumber": "0x7ed14f",
          "transactionHash": "0xd16cdb4cf224480f95007cfba769e675340f87c5e49aaf8a50680f3c0a9cffe5",
          "transactionIndex": "0x82",
          "logIndex": "0x26d",
          "removed": false
        },
        {
          "address": "0x703320bbbafdc9c9c03f4a668b1f8378fac20ce9",
          "topics": [
            "0xa99ac15e66cf9e140e5926043b3d77af81b6a62b56d7a1a62a50524b459c629c",
            "0xc73f6216dd76beff45c71ae8dd2058336033bd694e68977ec8c056c92ee644b0"
          ],
          "data": "0xb8e0c6787c591f927393b648c964a3be0dec54e537c383d40afe303c02ae7bc0000000000000000000000000000000000000000000000000000000006821ef2c",
          "blockHash": "0xa1c85373514fdacf88d8f7a158d61fac832f5adebf7aaf2d572c31b56defc982",
          "blockNumber": "0x7ed14f",
          "transactionHash": "0xd16cdb4cf224480f95007cfba769e675340f87c5e49aaf8a50680f3c0a9cffe5",
          "transactionIndex": "0x82",
          "logIndex": "0x26e",
          "removed": false
        },
        {
          "address": "0x703320bbbafdc9c9c03f4a668b1f8378fac20ce9",
          "topics": [
            "0xbba3da1981cba0e5120a88a8a0af78748ca735baf28bbdbbec963b4a550b86f0",
            "0x1b1abe6a5a0117706f1aa48f0aea51a064a623cd7464e6dbc71977fe791af32d",
            "0xc73f6216dd76beff45c71ae8dd2058336033bd694e68977ec8c056c92ee644b0"
          ],
          "data": "0xb8e0c6787c591f927393b648c964a3be0dec54e537c383d40afe303c02ae7bc0000000000000000000000000000000000000000000000000000000006821ef2c",
          "blockHash": "0xa1c85373514fdacf88d8f7a158d61fac832f5adebf7aaf2d572c31b56defc982",
          "blockNumber": "0x7ed14f",
          "transactionHash": "0xd16cdb4cf224480f95007cfba769e675340f87c5e49aaf8a50680f3c0a9cffe5",
          "transactionIndex": "0x82",
          "logIndex": "0x26f",
          "removed": false
        },
        {
          "address": "0x703320bbbafdc9c9c03f4a668b1f8378fac20ce9",
          "topics": [
            "0xb31cf989bedd91f9e98d2460feaa269f11c9cc3715309e1fa4c97941fe82873e",
            "0x1b1abe6a5a0117706f1aa48f0aea51a064a623cd7464e6dbc71977fe791af32d",
            "0x609c44bd6f0f7ff433bb0d7c64ce049e3bcf9b7f75b171574eb877a8afc8e261"
          ],
          "data": "0x000000000000000000000000000000000000000000000000000000006821ef2c",
          "blockHash": "0xa1c85373514fdacf88d8f7a158d61fac832f5adebf7aaf2d572c31b56defc982",
          "blockNumber": "0x7ed14f",
          "transactionHash": "0xd16cdb4cf224480f95007cfba769e675340f87c5e49aaf8a50680f3c0a9cffe5",
          "transactionIndex": "0x82",
          "logIndex": "0x270",
          "removed": false
        },
        {
          "address": "0x703320bbbafdc9c9c03f4a668b1f8378fac20ce9",
          "topics": [
            "0xa6a0deae1816caddad45f1f9d639dfce9a00dba539165c63feea9cd710beb2e7",
            "0x1b1abe6a5a0117706f1aa48f0aea51a064a623cd7464e6dbc71977fe791af32d",
            "0xc73f6216dd76beff45c71ae8dd2058336033bd694e68977ec8c056c92ee644b0"
          ],
          "data": "0x000000000000000000000000000000000000000000000000000000006821ef2c000000000000000000000000000000000000000000000000000000000000004000000000000000000000000000000000000000000000000000000000000000094772616475617465640000000000000000000000000000000000000000000000",
          "blockHash": "0xa1c85373514fdacf88d8f7a158d61fac832f5adebf7aaf2d572c31b56defc982",
          "blockNumber": "0x7ed14f",
          "transactionHash": "0xd16cdb4cf224480f95007cfba769e675340f87c5e49aaf8a50680f3c0a9cffe5",
          "transactionIndex": "0x82",
          "logIndex": "0x271",
          "removed": false
        },
        {
          "address": "0x703320bbbafdc9c9c03f4a668b1f8378fac20ce9",
          "topics": [
            "0x1356cf843afde52fee06c659d7f236baf0702f63c354b8a4a3bcc50c323dcdcd",
            "0xc73f6216dd76beff45c71ae8dd2058336033bd694e68977ec8c056c92ee644b0"
          ],
          "data": "0x000000000000000000000000000000000000000000000000000000006821ef2c",
          "blockHash": "0xa1c85373514fdacf88d8f7a158d61fac832f5adebf7aaf2d572c31b56defc982",
          "blockNumber": "0x7ed14f",
          "transactionHash": "0xd16cdb4cf224480f95007cfba769e675340f87c5e49aaf8a50680f3c0a9cffe5",
          "transactionIndex": "0x82",
          "logIndex": "0x272",
          "removed": false
        }
      ],
      "logsBloom": "0x00000000000000000000000020008004800000000000000000000000200200000001000000000020000000000800000000100000000008000000000020000000880000000000000000000000000000000000000000002000000000000000000000000000000000008000000040080000000400000000000000000100000000000001000000000000000000000000000000000000000000000000000000000000040000000000000000100000000002000000000000100000000010000000200000000008004000000000000002000000000000000100000000000000000100000000010000000000000000000000000000000000000000000000000000000000",
      "type": "0x2",
      "transactionHash": "0xd16cdb4cf224480f95007cfba769e675340f87c5e49aaf8a50680f3c0a9cffe5",
      "transactionIndex": "0x82",
      "blockHash": "0xa1c85373514fdacf88d8f7a158d61fac832f5adebf7aaf2d572c31b56defc982",
      "blockNumber": "0x7ed14f",
      "gasUsed": "0x14570",
      "effectiveGasPrice": "0x15d5f2",
      "from": "0xf1a625d200c881e9bdee81d4118c419f05c2d5a3",
      "to": "0x32d0ed50b52a442db5ef746ba69179119004922a",
      "contractAddress": null
    }
  ],
  "libraries": [],
  "pending": [],
  "returns": {},
  "timestamp": 1747054382,
  "chain": 11155111,
  "commit": "2247b2d"
}