{
  "transactions": [
    {
      "hash": "0xe8b0ab687482062543d68d209042ba553d8fed828f2bb7aae431ef666ce24b8b",
      "transactionType": "CALL",
      "contractName": null,
      "contractAddress": "0x703320bbbafdc9c9c03f4a668b1f8378fac20ce9",
      "function": "registerDID(string)",
      "arguments": [
        "did:example:issuer"
      ],
      "transaction": {
        "from": "0xf1a625d200c881e9bdee81d4118c419f05c2d5a3",
        "to": "0x703320bbbafdc9c9c03f4a668b1f8378fac20ce9",
        "gas": "0xfd92",
        "value": "0x0",
        "input": "0x570810e2000000000000000000000000000000000000000000000000000000000000002000000000000000000000000000000000000000000000000000000000000000126469643a6578616d706c653a6973737565720000000000000000000000000000",
        "nonce": "0x1",
        "chainId": "0xaa36a7"
      },
      "additionalContracts": [],
      "isFixedGasLimit": false
    },
    {
      "hash": "0xfe1bb5bd28cdfb25563b11c45d8305e2f755fd31dc5c8abdb047f1205beaca9e",
      "transactionType": "CALL",
      "contractName": null,
      "contractAddress": "0x703320bbbafdc9c9c03f4a668b1f8378fac20ce9",
      "function": "registerTrustedIssuer(string,bytes32)",
      "arguments": [
        "did:example:issuer",
        "0xb8e0c6787c591f927393b648c964a3be0dec54e537c383d40afe303c02ae7bc0"
      ],
      "transaction": {
        "from": "0xf1a625d200c881e9bdee81d4118c419f05c2d5a3",
        "to": "0x703320bbbafdc9c9c03f4a668b1f8378fac20ce9",
        "gas": "0x10c22",
        "value": "0x0",
        "input": "0xfc74d3e20000000000000000000000000000000000000000000000000000000000000040b8e0c6787c591f927393b648c964a3be0dec54e537c383d40afe303c02ae7bc000000000000000000000000000000000000000000000000000000000000000126469643a6578616d706c653a6973737565720000000000000000000000000000",
        "nonce": "0x2",
        "chainId": "0xaa36a7"
      },
      "additionalContracts": [],
      "isFixedGasLimit": false
    },
    {
      "hash": "0x4620ed5dfeec17aa72d42868944c8322cc384385399a061d09d66f815175e5de",
      "transactionType": "CALL",
      "contractName": null,
      "contractAddress": "0x703320bbbafdc9c9c03f4a668b1f8378fac20ce9",
      "function": "issueCredential(string,string,bytes32)",
      "arguments": [
        "{subject:did:example:user,degree:ComputerScience}",
        "did:example:issuer",
        "0xb8e0c6787c591f927393b648c964a3be0dec54e537c383d40afe303c02ae7bc0"
      ],
      "transaction": {
        "from": "0xf1a625d200c881e9bdee81d4118c419f05c2d5a3",
        "to": "0x703320bbbafdc9c9c03f4a668b1f8378fac20ce9",
        "gas": "0x9f5a",
        "value": "0x0",
        "input": "0x5c591ef1000000000000000000000000000000000000000000000000000000000000006000000000000000000000000000000000000000000000000000000000000000c0b8e0c6787c591f927393b648c964a3be0dec54e537c383d40afe303c02ae7bc000000000000000000000000000000000000000000000000000000000000000317b7375626a6563743a6469643a6578616d706c653a757365722c6465677265653a436f6d7075746572536369656e63657d00000000000000000000000000000000000000000000000000000000000000000000000000000000000000000000126469643a6578616d706c653a6973737565720000000000000000000000000000",
        "nonce": "0x3",
        "chainId": "0xaa36a7"
      },
      "additionalContracts": [],
      "isFixedGasLimit": false
    },
    {
      "hash": "0x9a058450cec4c6ff3948361d8c4c765d3c205e01b5f175c6e023cc9c9171af3c",
      "transactionType": "CALL",
      "contractName": null,
      "contractAddress": "0x703320bbbafdc9c9c03f4a668b1f8378fac20ce9",
      "function": "logCredentialVerification(string,string)",
      "arguments": [
        "{subject:did:example:user,degree:ComputerScience}",
        "did:example:verifier"
      ],
      "transaction": {
        "from": "0xf1a625d200c881e9bdee81d4118c419f05c2d5a3",
        "to": "0x703320bbbafdc9c9c03f4a668b1f8378fac20ce9",
        "gas": "0x99a4",
        "value": "0x0",
        "input": "0xe71aa318000000000000000000000000000000000000000000000000000000000000004000000000000000000000000000000000000000000000000000000000000000a000000000000000000000000000000000000000000000000000000000000000317b7375626a6563743a6469643a6578616d706c653a757365722c6465677265653a436f6d7075746572536369656e63657d00000000000000000000000000000000000000000000000000000000000000000000000000000000000000000000146469643a6578616d706c653a7665726966696572000000000000000000000000",
        "nonce": "0x4",
        "chainId": "0xaa36a7"
      },
      "additionalContracts": [],
      "isFixedGasLimit": false
    },
    {
      "hash": "0xc28bdc7b64cd85c63304e0292489d08f3ca92f9ce1ff0abadda363548f26c56d",
      "transactionType": "CALL",
      "contractName": null,
      "contractAddress": "0x703320bbbafdc9c9c03f4a668b1f8378fac20ce9",
      "function": "revokeCredential(string,string,string)",
      "arguments": [
        "{subject:did:example:user,degree:ComputerScience}",
        "did:example:issuer",
        "Graduated"
      ],
      "transaction": {
        "from": "0xf1a625d200c881e9bdee81d4118c419f05c2d5a3",
        "to": "0x703320bbbafdc9c9c03f4a668b1f8378fac20ce9",
        "gas": "0x12c25",
        "value": "0x0",
        "input": "0xf1a6968d000000000000000000000000000000000000000000000000000000000000006000000000000000000000000000000000000000000000000000000000000000c0000000000000000000000000000000000000000000000000000000000000010000000000000000000000000000000000000000000000000000000000000000317b7375626a6563743a6469643a6578616d706c653a757365722c6465677265653a436f6d7075746572536369656e63657d00000000000000000000000000000000000000000000000000000000000000000000000000000000000000000000126469643a6578616d706c653a697373756572000000000000000000000000000000000000000000000000000000000000000000000000000000000000000000094772616475617465640000000000000000000000000000000000000000000000",
        "nonce": "0x5",
        "chainId": "0xaa36a7"
      },
      "additionalContracts": [],
      "isFixedGasLimit": false
    },
    {
      "hash": "0x846b20180322f56b7747fc4dbb6452b4e119660cc9e2dacf9c8a5bf91af57b45",
      "transactionType": "CALL",
      "contractName": null,
      "contractAddress": "0x703320bbbafdc9c9c03f4a668b1f8378fac20ce9",
      "function": "deactivateDID(string)",
      "arguments": [
        "did:example:issuer"
      ],
      "transaction": {
        "from": "0xf1a625d200c881e9bdee81d4118c419f05c2d5a3",
        "to": "0x703320bbbafdc9c9c03f4a668b1f8378fac20ce9",
        "gas": "0x8517",
        "value": "0x0",
        "input": "0x3b253b23000000000000000000000000000000000000000000000000000000000000002000000000000000000000000000000000000000000000000000000000000000126469643a6578616d706c653a6973737565720000000000000000000000000000",
        "nonce": "0x6",
        "chainId": "0xaa36a7"
      },
      "additionalContracts": [],
      "isFixedGasLimit": false
    }
  ],
  "receipts": [
    {
      "status": "0x1",
      "cumulativeGasUsed": "0x1350901",
      "logs": [
        {
          "address": "0x703320bbbafdc9c9c03f4a668b1f8378fac20ce9",
          "topics": [
            "0xb8b2e3bb27e6b5ffbf9236494fa25cd03dbecac445aee5269344832b96381954",
            "0xc73f6216dd76beff45c71ae8dd2058336033bd694e68977ec8c056c92ee644b0",
            "0x000000000000000000000000f1a625d200c881e9bdee81d4118c419f05c2d5a3"
          ],
          "data": "0x000000000000000000000000000000000000000000000000000000006821ebcc",
          "blockHash": "0x43cbeb1a5bbdbaa0cad42f93cdd8bc077dee54e47cf78ab2900325fa843a4948",
          "blockNumber": "0x7ed107",
          "blockTimestamp": "0x6821ebcc",
          "transactionHash": "0xe8b0ab687482062543d68d209042ba553d8fed828f2bb7aae431ef666ce24b8b",
          "transactionIndex": "0x94",
          "logIndex": "0x1b1",
          "removed": false
        }
      ],
      "logsBloom": "0x00000000000000000000000000008000000000000000000000000000000200000000000000000020000000000800000000100000000000000000000000000000000000000000000000000000000000000000000000000000000000000000000000000000000000000000000000000200000400000000000000000000000000000000000000000000000000000000000000000000000000000000000000000000000000000000000000000000000000000000000000000000100000000000200000000000000000000000002002000000000000000100000000000000000000000000000000000000000000000000000000000000000000000000000000000000",
      "type": "0x2",
      "transactionHash": "0xe8b0ab687482062543d68d209042ba553d8fed828f2bb7aae431ef666ce24b8b",
      "transactionIndex": "0x94",
      "blockHash": "0x43cbeb1a5bbdbaa0cad42f93cdd8bc077dee54e47cf78ab2900325fa843a4948",
      "blockNumber": "0x7ed107",
      "gasUsed": "0xb795",
      "effectiveGasPrice": "0x113fc2",
      "from": "0xf1a625d200c881e9bdee81d4118c419f05c2d5a3",
      "to": "0x703320bbbafdc9c9c03f4a668b1f8378fac20ce9",
      "contractAddress": null
    },
    {
      "status": "0x1",
      "cumulativeGasUsed": "0x135cb21",
      "logs": [
        {
          "address": "0x703320bbbafdc9c9c03f4a668b1f8378fac20ce9",
          "topics": [
            "0xa99ac15e66cf9e140e5926043b3d77af81b6a62b56d7a1a62a50524b459c629c",
            "0xc73f6216dd76beff45c71ae8dd2058336033bd694e68977ec8c056c92ee644b0"
          ],
          "data": "0xb8e0c6787c591f927393b648c964a3be0dec54e537c383d40afe303c02ae7bc0000000000000000000000000000000000000000000000000000000006821ebcc",
          "blockHash": "0x43cbeb1a5bbdbaa0cad42f93cdd8bc077dee54e47cf78ab2900325fa843a4948",
          "blockNumber": "0x7ed107",
          "blockTimestamp": "0x6821ebcc",
          "transactionHash": "0xfe1bb5bd28cdfb25563b11c45d8305e2f755fd31dc5c8abdb047f1205beaca9e",
          "transactionIndex": "0x95",
          "logIndex": "0x1b2",
          "removed": false
        }
      ],
      "logsBloom": "0x00000000000000000000000020008000000000000000000000000000000000000000000000000020000000000800000000000000000000000000000000000000080000000000000000000000000000000000000000000000000000000000000000000000000000000000000000000000000000000000000000000000000000000000000000000000000000000000000000000000000000000000000000000000000000000000000000000000000000000000000000000000000000000000200000000000004000000000000002000000000000000100000000000000000000000000000000000000000000000000000000000000000000000000000000000000",
      "type": "0x2",
      "transactionHash": "0xfe1bb5bd28cdfb25563b11c45d8305e2f755fd31dc5c8abdb047f1205beaca9e",
      "transactionIndex": "0x95",
      "blockHash": "0x43cbeb1a5bbdbaa0cad42f93cdd8bc077dee54e47cf78ab2900325fa843a4948",
      "blockNumber": "0x7ed107",
      "gasUsed": "0xc220",
      "effectiveGasPrice": "0x113fc2",
      "from": "0xf1a625d200c881e9bdee81d4118c419f05c2d5a3",
      "to": "0x703320bbbafdc9c9c03f4a668b1f8378fac20ce9",
      "contractAddress": null
    },
    {
      "status": "0x1",
      "cumulativeGasUsed": "0x1363e80",
      "logs": [
        {
          "address": "0x703320bbbafdc9c9c03f4a668b1f8378fac20ce9",
          "topics": [
            "0xbba3da1981cba0e5120a88a8a0af78748ca735baf28bbdbbec963b4a550b86f0",
            "0xd0440f5e6513e142ced25d3ff65766278ce1a2cb92bf9aa6e57096d1bdadb33d",
            "0xc73f6216dd76beff45c71ae8dd2058336033bd694e68977ec8c056c92ee644b0"
          ],
          "data": "0xb8e0c6787c591f927393b648c964a3be0dec54e537c383d40afe303c02ae7bc0000000000000000000000000000000000000000000000000000000006821ebcc",
          "blockHash": "0x43cbeb1a5bbdbaa0cad42f93cdd8bc077dee54e47cf78ab2900325fa843a4948",
          "blockNumber": "0x7ed107",
          "blockTimestamp": "0x6821ebcc",
          "transactionHash": "0x4620ed5dfeec17aa72d42868944c8322cc384385399a061d09d66f815175e5de",
          "transactionIndex": "0x96",
          "logIndex": "0x1b3",
          "removed": false
        }
      ],
      "logsBloom": "0x00000000000000000000000000008000800000000000000000000000000000000000000000000020000000000800000000000000000000000000000200000080000000000000000000000000000000000000000000000000000000000000000000000000000000000000000040000000000000010000000000000000000000000000000000000000000000000000000000000000000000000000000000000000000000000000000000100000000000000000000000000000000000000000200000000000000000000000000002000000000000000100000000000000000000000000000000000000000000000000000000000000000000000000000000000000",
      "type": "0x2",
      "transactionHash": "0x4620ed5dfeec17aa72d42868944c8322cc384385399a061d09d66f815175e5de",
      "transactionIndex": "0x96",
      "blockHash": "0x43cbeb1a5bbdbaa0cad42f93cdd8bc077dee54e47cf78ab2900325fa843a4948",
      "blockNumber": "0x7ed107",
      "gasUsed": "0x735f",
      "effectiveGasPrice": "0x113fc2",
      "from": "0xf1a625d200c881e9bdee81d4118c419f05c2d5a3",
      "to": "0x703320bbbafdc9c9c03f4a668b1f8378fac20ce9",
      "contractAddress": null
    },
    {
      "status": "0x1",
      "cumulativeGasUsed": "0x136adbd",
      "logs": [
        {
          "address": "0x703320bbbafdc9c9c03f4a668b1f8378fac20ce9",
          "topics": [
            "0xb31cf989bedd91f9e98d2460feaa269f11c9cc3715309e1fa4c97941fe82873e",
            "0xd0440f5e6513e142ced25d3ff65766278ce1a2cb92bf9aa6e57096d1bdadb33d",
            "0x609c44bd6f0f7ff433bb0d7c64ce049e3bcf9b7f75b171574eb877a8afc8e261"
          ],
          "data": "0x000000000000000000000000000000000000000000000000000000006821ebcc",
          "blockHash": "0x43cbeb1a5bbdbaa0cad42f93cdd8bc077dee54e47cf78ab2900325fa843a4948",
          "blockNumber": "0x7ed107",
          "blockTimestamp": "0x6821ebcc",
          "transactionHash": "0x9a058450cec4c6ff3948361d8c4c765d3c205e01b5f175c6e023cc9c9171af3c",
          "transactionIndex": "0x97",
          "logIndex": "0x1b4",
          "removed": false
        }
      ],
      "logsBloom": "0x00000000000000000000000000008000000000000000000000000000200000000000000000000020000000000800000000000000000000000000000220000080800000000000000000000000000000000000000000000000000000000000000000000000000000008000000000000000000000010000000000000000000000000000000000000000000000000000000000000000000000000000000000000000040000000000000000000000000000000000000000000000000000000000000000000000000000000000000000000000000000000000000000000000000000000000010000000000000000000000000000000000000000000000000000000000",
      "type": "0x2",
      "transactionHash": "0x9a058450cec4c6ff3948361d8c4c765d3c205e01b5f175c6e023cc9c9171af3c",
      "transactionIndex": "0x97",
      "blockHash": "0x43cbeb1a5bbdbaa0cad42f93cdd8bc077dee54e47cf78ab2900325fa843a4948",
      "blockNumber": "0x7ed107",
      "gasUsed": "0x6f3d",
      "effectiveGasPrice": "0x113fc2",
      "from": "0xf1a625d200c881e9bdee81d4118c419f05c2d5a3",
      "to": "0x703320bbbafdc9c9c03f4a668b1f8378fac20ce9",
      "contractAddress": null
    },
    {
      "status": "0x1",
      "cumulativeGasUsed": "0x1377af8",
      "logs": [
        {
          "address": "0x703320bbbafdc9c9c03f4a668b1f8378fac20ce9",
          "topics": [
            "0xa6a0deae1816caddad45f1f9d639dfce9a00dba539165c63feea9cd710beb2e7",
            "0xd0440f5e6513e142ced25d3ff65766278ce1a2cb92bf9aa6e57096d1bdadb33d",
            "0xc73f6216dd76beff45c71ae8dd2058336033bd694e68977ec8c056c92ee644b0"
          ],
          "data": "0x000000000000000000000000000000000000000000000000000000006821ebcc000000000000000000000000000000000000000000000000000000000000004000000000000000000000000000000000000000000000000000000000000000094772616475617465640000000000000000000000000000000000000000000000",
          "blockHash": "0x43cbeb1a5bbdbaa0cad42f93cdd8bc077dee54e47cf78ab2900325fa843a4948",
          "blockNumber": "0x7ed107",
          "blockTimestamp": "0x6821ebcc",
          "transactionHash": "0xc28bdc7b64cd85c63304e0292489d08f3ca92f9ce1ff0abadda363548f26c56d",
          "transactionIndex": "0x98",
          "logIndex": "0x1b5",
          "removed": false
        }
      ],
      "logsBloom": "0x00000000000000000000000000008000000000000000000000000000000000000000000000000020000000000800000000000000000008000000000200000080000000000000000000000000000000000000000000000000000000000000000000000000000000000000000000000000000000010000000000000000000000000001000000000000000000000000000000000000000000000000000000000000000000000000000000000000000002000000000000000000000000000000200000000000000000000000000002000000000000000100000000000000000000000000000000000000000000000000000000000000000000000000000000000000",
      "type": "0x2",
      "transactionHash": "0xc28bdc7b64cd85c63304e0292489d08f3ca92f9ce1ff0abadda363548f26c56d",
      "transactionIndex": "0x98",
      "blockHash": "0x43cbeb1a5bbdbaa0cad42f93cdd8bc077dee54e47cf78ab2900325fa843a4948",
      "blockNumber": "0x7ed107",
      "gasUsed": "0xcd3b",
      "effectiveGasPrice": "0x113fc2",
      "from": "0xf1a625d200c881e9bdee81d4118c419f05c2d5a3",
      "to": "0x703320bbbafdc9c9c03f4a668b1f8378fac20ce9",
      "contractAddress": null
    },
    {
      "status": "0x1",
      "cumulativeGasUsed": "0x139621b",
      "logs": [
        {
          "address": "0x703320bbbafdc9c9c03f4a668b1f8378fac20ce9",
          "topics": [
            "0x1356cf843afde52fee06c659d7f236baf0702f63c354b8a4a3bcc50c323dcdcd",
            "0xc73f6216dd76beff45c71ae8dd2058336033bd694e68977ec8c056c92ee644b0"
          ],
          "data": "0x000000000000000000000000000000000000000000000000000000006821ebcc",
          "blockHash": "0x43cbeb1a5bbdbaa0cad42f93cdd8bc077dee54e47cf78ab2900325fa843a4948",
          "blockNumber": "0x7ed107",
          "blockTimestamp": "0x6821ebcc",
          "transactionHash": "0x846b20180322f56b7747fc4dbb6452b4e119660cc9e2dacf9c8a5bf91af57b45",
          "transactionIndex": "0x9a",
          "logIndex": "0x1b8",
          "removed": false
        }
      ],
      "logsBloom": "0x00000000000000000000000000008004000000000000000000000000000000000001000000000020000000000800000000000000000000000000000000000000000000000000000000000000000000000000000000000000000000000000000000000000000000000000000000000000000000000000000000000000000000000000000000000000000000000000000000000000000000000000000000000000000000000000000000000000000000000000000000000000000000000000200000000008000000000000000002000000000000000100000000000000000000000000000000000000000000000000000000000000000000000000000000000000",
      "type": "0x2",
      "transactionHash": "0x846b20180322f56b7747fc4dbb6452b4e119660cc9e2dacf9c8a5bf91af57b45",
      "transactionIndex": "0x9a",
      "blockHash": "0x43cbeb1a5bbdbaa0cad42f93cdd8bc077dee54e47cf78ab2900325fa843a4948",
      "blockNumber": "0x7ed107",
      "gasUsed": "0x605c",
      "effectiveGasPrice": "0x113fc2",
      "from": "0xf1a625d200c881e9bdee81d4118c419f05c2d5a3",
      "to": "0x703320bbbafdc9c9c03f4a668b1f8378fac20ce9",
      "contractAddress": null
    }
  ],
  "libraries": [],
  "pending": [],
  "returns": {},
  "timestamp": 1747053518,
  "chain": 11155111,
  "commit": "2247b2d"
}